{
  "_format": "hh-sol-artifact-1",
  "contractName": "NFTMarketplace",
  "sourceName": "contracts/NFTMarketplace.sol",
  "abi": [
    {
      "inputs": [],
      "stateMutability": "nonpayable",
      "type": "constructor"
    },
    {
      "anonymous": false,
      "inputs": [
        {
          "indexed": true,
          "internalType": "address",
          "name": "owner",
          "type": "address"
        },
        {
          "indexed": true,
          "internalType": "address",
          "name": "approved",
          "type": "address"
        },
        {
          "indexed": true,
          "internalType": "uint256",
          "name": "tokenId",
          "type": "uint256"
        }
      ],
      "name": "Approval",
      "type": "event"
    },
    {
      "anonymous": false,
      "inputs": [
        {
          "indexed": true,
          "internalType": "address",
          "name": "owner",
          "type": "address"
        },
        {
          "indexed": true,
          "internalType": "address",
          "name": "operator",
          "type": "address"
        },
        {
          "indexed": false,
          "internalType": "bool",
          "name": "approved",
          "type": "bool"
        }
      ],
      "name": "ApprovalForAll",
      "type": "event"
    },
    {
      "anonymous": false,
      "inputs": [
        {
          "indexed": true,
          "internalType": "uint256",
          "name": "tokenId",
          "type": "uint256"
        },
        {
          "indexed": false,
          "internalType": "address",
          "name": "seller",
          "type": "address"
        },
        {
          "indexed": false,
          "internalType": "address",
          "name": "owner",
          "type": "address"
        },
        {
          "indexed": false,
          "internalType": "uint256",
          "name": "price",
          "type": "uint256"
        },
        {
          "indexed": false,
          "internalType": "bool",
          "name": "sold",
          "type": "bool"
        }
      ],
      "name": "MarketItemCreated",
      "type": "event"
    },
    {
      "anonymous": false,
      "inputs": [
        {
          "indexed": true,
          "internalType": "address",
          "name": "from",
          "type": "address"
        },
        {
          "indexed": true,
          "internalType": "address",
          "name": "to",
          "type": "address"
        },
        {
          "indexed": true,
          "internalType": "uint256",
          "name": "tokenId",
          "type": "uint256"
        }
      ],
      "name": "Transfer",
      "type": "event"
    },
    {
      "inputs": [
        {
          "internalType": "address",
          "name": "to",
          "type": "address"
        },
        {
          "internalType": "uint256",
          "name": "tokenId",
          "type": "uint256"
        }
      ],
      "name": "approve",
      "outputs": [],
      "stateMutability": "nonpayable",
      "type": "function"
    },
    {
      "inputs": [
        {
          "internalType": "address",
          "name": "owner",
          "type": "address"
        }
      ],
      "name": "balanceOf",
      "outputs": [
        {
          "internalType": "uint256",
          "name": "",
          "type": "uint256"
        }
      ],
      "stateMutability": "view",
      "type": "function"
    },
    {
      "inputs": [
        {
          "internalType": "uint256",
          "name": "tokenId",
          "type": "uint256"
        }
      ],
      "name": "createMarketSale",
      "outputs": [],
      "stateMutability": "payable",
      "type": "function"
    },
    {
      "inputs": [
        {
          "internalType": "string",
          "name": "tokenURI",
          "type": "string"
        },
        {
          "internalType": "uint256",
          "name": "price",
          "type": "uint256"
        }
      ],
      "name": "createToken",
      "outputs": [
        {
          "internalType": "uint256",
          "name": "",
          "type": "uint256"
        }
      ],
      "stateMutability": "payable",
      "type": "function"
    },
    {
      "inputs": [],
      "name": "fetchItemsListed",
      "outputs": [
        {
          "components": [
            {
              "internalType": "uint256",
              "name": "tokenId",
              "type": "uint256"
            },
            {
              "internalType": "address payable",
              "name": "seller",
              "type": "address"
            },
            {
              "internalType": "address payable",
              "name": "owner",
              "type": "address"
            },
            {
              "internalType": "uint256",
              "name": "price",
              "type": "uint256"
            },
            {
              "internalType": "bool",
              "name": "sold",
              "type": "bool"
            }
          ],
          "internalType": "struct NFTMarketplace.MarketItem[]",
          "name": "",
          "type": "tuple[]"
        }
      ],
      "stateMutability": "view",
      "type": "function"
    },
    {
      "inputs": [],
      "name": "fetchMarketItems",
      "outputs": [
        {
          "components": [
            {
              "internalType": "uint256",
              "name": "tokenId",
              "type": "uint256"
            },
            {
              "internalType": "address payable",
              "name": "seller",
              "type": "address"
            },
            {
              "internalType": "address payable",
              "name": "owner",
              "type": "address"
            },
            {
              "internalType": "uint256",
              "name": "price",
              "type": "uint256"
            },
            {
              "internalType": "bool",
              "name": "sold",
              "type": "bool"
            }
          ],
          "internalType": "struct NFTMarketplace.MarketItem[]",
          "name": "",
          "type": "tuple[]"
        }
      ],
      "stateMutability": "view",
      "type": "function"
    },
    {
      "inputs": [],
      "name": "fetchMyNFTs",
      "outputs": [
        {
          "components": [
            {
              "internalType": "uint256",
              "name": "tokenId",
              "type": "uint256"
            },
            {
              "internalType": "address payable",
              "name": "seller",
              "type": "address"
            },
            {
              "internalType": "address payable",
              "name": "owner",
              "type": "address"
            },
            {
              "internalType": "uint256",
              "name": "price",
              "type": "uint256"
            },
            {
              "internalType": "bool",
              "name": "sold",
              "type": "bool"
            }
          ],
          "internalType": "struct NFTMarketplace.MarketItem[]",
          "name": "",
          "type": "tuple[]"
        }
      ],
      "stateMutability": "view",
      "type": "function"
    },
    {
      "inputs": [
        {
          "internalType": "uint256",
          "name": "tokenId",
          "type": "uint256"
        }
      ],
      "name": "getApproved",
      "outputs": [
        {
          "internalType": "address",
          "name": "",
          "type": "address"
        }
      ],
      "stateMutability": "view",
      "type": "function"
    },
    {
      "inputs": [],
      "name": "getListingPrice",
      "outputs": [
        {
          "internalType": "uint256",
          "name": "",
          "type": "uint256"
        }
      ],
      "stateMutability": "view",
      "type": "function"
    },
    {
      "inputs": [
        {
          "internalType": "address",
          "name": "owner",
          "type": "address"
        },
        {
          "internalType": "address",
          "name": "operator",
          "type": "address"
        }
      ],
      "name": "isApprovedForAll",
      "outputs": [
        {
          "internalType": "bool",
          "name": "",
          "type": "bool"
        }
      ],
      "stateMutability": "view",
      "type": "function"
    },
    {
      "inputs": [],
      "name": "name",
      "outputs": [
        {
          "internalType": "string",
          "name": "",
          "type": "string"
        }
      ],
      "stateMutability": "view",
      "type": "function"
    },
    {
      "inputs": [
        {
          "internalType": "uint256",
          "name": "tokenId",
          "type": "uint256"
        }
      ],
      "name": "ownerOf",
      "outputs": [
        {
          "internalType": "address",
          "name": "",
          "type": "address"
        }
      ],
      "stateMutability": "view",
      "type": "function"
    },
    {
      "inputs": [
        {
          "internalType": "uint256",
          "name": "tokenId",
          "type": "uint256"
        },
        {
          "internalType": "uint256",
          "name": "price",
          "type": "uint256"
        }
      ],
      "name": "resellToken",
      "outputs": [],
      "stateMutability": "payable",
      "type": "function"
    },
    {
      "inputs": [
        {
          "internalType": "address",
          "name": "from",
          "type": "address"
        },
        {
          "internalType": "address",
          "name": "to",
          "type": "address"
        },
        {
          "internalType": "uint256",
          "name": "tokenId",
          "type": "uint256"
        }
      ],
      "name": "safeTransferFrom",
      "outputs": [],
      "stateMutability": "nonpayable",
      "type": "function"
    },
    {
      "inputs": [
        {
          "internalType": "address",
          "name": "from",
          "type": "address"
        },
        {
          "internalType": "address",
          "name": "to",
          "type": "address"
        },
        {
          "internalType": "uint256",
          "name": "tokenId",
          "type": "uint256"
        },
        {
          "internalType": "bytes",
          "name": "data",
          "type": "bytes"
        }
      ],
      "name": "safeTransferFrom",
      "outputs": [],
      "stateMutability": "nonpayable",
      "type": "function"
    },
    {
      "inputs": [
        {
          "internalType": "address",
          "name": "operator",
          "type": "address"
        },
        {
          "internalType": "bool",
          "name": "approved",
          "type": "bool"
        }
      ],
      "name": "setApprovalForAll",
      "outputs": [],
      "stateMutability": "nonpayable",
      "type": "function"
    },
    {
      "inputs": [
        {
          "internalType": "bytes4",
          "name": "interfaceId",
          "type": "bytes4"
        }
      ],
      "name": "supportsInterface",
      "outputs": [
        {
          "internalType": "bool",
          "name": "",
          "type": "bool"
        }
      ],
      "stateMutability": "view",
      "type": "function"
    },
    {
      "inputs": [],
      "name": "symbol",
      "outputs": [
        {
          "internalType": "string",
          "name": "",
          "type": "string"
        }
      ],
      "stateMutability": "view",
      "type": "function"
    },
    {
      "inputs": [
        {
          "internalType": "uint256",
          "name": "tokenId",
          "type": "uint256"
        }
      ],
      "name": "tokenURI",
      "outputs": [
        {
          "internalType": "string",
          "name": "",
          "type": "string"
        }
      ],
      "stateMutability": "view",
      "type": "function"
    },
    {
      "inputs": [
        {
          "internalType": "address",
          "name": "from",
          "type": "address"
        },
        {
          "internalType": "address",
          "name": "to",
          "type": "address"
        },
        {
          "internalType": "uint256",
          "name": "tokenId",
          "type": "uint256"
        }
      ],
      "name": "transferFrom",
      "outputs": [],
      "stateMutability": "nonpayable",
      "type": "function"
    },
    {
      "inputs": [
        {
          "internalType": "uint256",
          "name": "_listingPrice",
          "type": "uint256"
        }
      ],
      "name": "updateListingPrice",
      "outputs": [],
      "stateMutability": "payable",
      "type": "function"
    }
  ],
  "bytecode": "0x608060405264e8d4a510006009553480156200001a57600080fd5b506040518060400160405280601081526020017f4d657461766572736520546f6b656e73000000000000000000000000000000008152506040518060400160405280600481526020017f4d4554540000000000000000000000000000000000000000000000000000000081525081600090805190602001906200009f92919062000102565b508060019080519060200190620000b892919062000102565b50505033600a60006101000a81548173ffffffffffffffffffffffffffffffffffffffff021916908373ffffffffffffffffffffffffffffffffffffffff16021790555062000217565b8280546200011090620001e1565b90600052602060002090601f01602090048101928262000134576000855562000180565b82601f106200014f57805160ff191683800117855562000180565b8280016001018555821562000180579182015b828111156200017f57825182559160200191906001019062000162565b5b5090506200018f919062000193565b5090565b5b80821115620001ae57600081600090555060010162000194565b5090565b7f4e487b7100000000000000000000000000000000000000000000000000000000600052602260045260246000fd5b60006002820490506001821680620001fa57607f821691505b60208210811415620002115762000210620001b2565b5b50919050565b6140ac80620002276000396000f3fe60806040526004361061012a5760003560e01c80636352211e116100ab578063ae677aa31161006f578063ae677aa3146103f9578063b88d4fde14610415578063be9af5361461043e578063c87b56dd1461045a578063e219fc7514610497578063e985e9c5146104b35761012a565b80636352211e146102fb57806370a082311461033857806372b3b6201461037557806395d89b41146103a5578063a22cb465146103d05761012a565b806312e85585116100f257806312e8558514610228578063202e37401461025357806323b872dd1461027e57806342842e0e146102a757806345f8fa80146102d05761012a565b806301ffc9a71461012f57806306fdde031461016c578063081812fc14610197578063095ea7b3146101d45780630f08efe0146101fd575b600080fd5b34801561013b57600080fd5b5061015660048036038101906101519190612acd565b6104f0565b6040516101639190612b15565b60405180910390f35b34801561017857600080fd5b506101816105d2565b60405161018e9190612bc9565b60405180910390f35b3480156101a357600080fd5b506101be60048036038101906101b99190612c21565b610664565b6040516101cb9190612c8f565b60405180910390f35b3480156101e057600080fd5b506101fb60048036038101906101f69190612cd6565b6106aa565b005b34801561020957600080fd5b506102126107c2565b60405161021f9190612e6c565b60405180910390f35b34801561023457600080fd5b5061023d610a2b565b60405161024a9190612e9d565b60405180910390f35b34801561025f57600080fd5b50610268610a35565b6040516102759190612e6c565b60405180910390f35b34801561028a57600080fd5b506102a560048036038101906102a09190612eb8565b610d23565b005b3480156102b357600080fd5b506102ce60048036038101906102c99190612eb8565b610d83565b005b3480156102dc57600080fd5b506102e5610da3565b6040516102f29190612e6c565b60405180910390f35b34801561030757600080fd5b50610322600480360381019061031d9190612c21565b611091565b60405161032f9190612c8f565b60405180910390f35b34801561034457600080fd5b5061035f600480360381019061035a9190612f0b565b611143565b60405161036c9190612e9d565b60405180910390f35b61038f600480360381019061038a919061306d565b6111fb565b60405161039c9190612e9d565b60405180910390f35b3480156103b157600080fd5b506103ba61123d565b6040516103c79190612bc9565b60405180910390f35b3480156103dc57600080fd5b506103f760048036038101906103f291906130f5565b6112cf565b005b610413600480360381019061040e9190612c21565b6112e5565b005b34801561042157600080fd5b5061043c600480360381019061043791906131d6565b61140f565b005b61045860048036038101906104539190612c21565b611471565b005b34801561046657600080fd5b50610481600480360381019061047c9190612c21565b6116a9565b60405161048e9190612bc9565b60405180910390f35b6104b160048036038101906104ac9190613259565b6117bc565b005b3480156104bf57600080fd5b506104da60048036038101906104d59190613299565b6119b1565b6040516104e79190612b15565b60405180910390f35b60007f80ac58cd000000000000000000000000000000000000000000000000000000007bffffffffffffffffffffffffffffffffffffffffffffffffffffffff1916827bffffffffffffffffffffffffffffffffffffffffffffffffffffffff191614806105bb57507f5b5e139f000000000000000000000000000000000000000000000000000000007bffffffffffffffffffffffffffffffffffffffffffffffffffffffff1916827bffffffffffffffffffffffffffffffffffffffffffffffffffffffff1916145b806105cb57506105ca82611a45565b5b9050919050565b6060600080546105e190613308565b80601f016020809104026020016040519081016040528092919081815260200182805461060d90613308565b801561065a5780601f1061062f5761010080835404028352916020019161065a565b820191906000526020600020905b81548152906001019060200180831161063d57829003601f168201915b5050505050905090565b600061066f82611aaf565b6004600083815260200190815260200160002060009054906101000a900473ffffffffffffffffffffffffffffffffffffffff169050919050565b60006106b582611091565b90508073ffffffffffffffffffffffffffffffffffffffff168373ffffffffffffffffffffffffffffffffffffffff161415610726576040517f08c379a000000000000000000000000000000000000000000000000000000000815260040161071d906133ac565b60405180910390fd5b8073ffffffffffffffffffffffffffffffffffffffff16610745611afa565b73ffffffffffffffffffffffffffffffffffffffff16148061077457506107738161076e611afa565b6119b1565b5b6107b3576040517f08c379a00000000000000000000000000000000000000000000000000000000081526004016107aa9061343e565b60405180910390fd5b6107bd8383611b02565b505050565b606060006107d06007611bbb565b905060006107de6008611bbb565b6107e86007611bbb565b6107f2919061348d565b90506000808267ffffffffffffffff81111561081157610810612f42565b5b60405190808252806020026020018201604052801561084a57816020015b610837612961565b81526020019060019003908161082f5790505b50905060005b84811015610a20573073ffffffffffffffffffffffffffffffffffffffff16600b600060018461088091906134c1565b815260200190815260200160002060020160009054906101000a900473ffffffffffffffffffffffffffffffffffffffff1673ffffffffffffffffffffffffffffffffffffffff161415610a0d5760006001826108dd91906134c1565b90506000600b60008381526020019081526020016000209050806040518060a0016040529081600082015481526020016001820160009054906101000a900473ffffffffffffffffffffffffffffffffffffffff1673ffffffffffffffffffffffffffffffffffffffff1673ffffffffffffffffffffffffffffffffffffffff1681526020016002820160009054906101000a900473ffffffffffffffffffffffffffffffffffffffff1673ffffffffffffffffffffffffffffffffffffffff1673ffffffffffffffffffffffffffffffffffffffff168152602001600382015481526020016004820160009054906101000a900460ff1615151515815250508486815181106109f0576109ef613517565b5b6020026020010181905250600185610a0891906134c1565b945050505b8080610a1890613546565b915050610850565b508094505050505090565b6000600954905090565b60606000610a436007611bbb565b905060008060005b83811015610aec573373ffffffffffffffffffffffffffffffffffffffff16600b6000600184610a7b91906134c1565b815260200190815260200160002060020160009054906101000a900473ffffffffffffffffffffffffffffffffffffffff1673ffffffffffffffffffffffffffffffffffffffff161415610ad957600183610ad691906134c1565b92505b8080610ae490613546565b915050610a4b565b5060008267ffffffffffffffff811115610b0957610b08612f42565b5b604051908082528060200260200182016040528015610b4257816020015b610b2f612961565b815260200190600190039081610b275790505b50905060005b84811015610d18573373ffffffffffffffffffffffffffffffffffffffff16600b6000600184610b7891906134c1565b815260200190815260200160002060020160009054906101000a900473ffffffffffffffffffffffffffffffffffffffff1673ffffffffffffffffffffffffffffffffffffffff161415610d05576000600182610bd591906134c1565b90506000600b60008381526020019081526020016000209050806040518060a0016040529081600082015481526020016001820160009054906101000a900473ffffffffffffffffffffffffffffffffffffffff1673ffffffffffffffffffffffffffffffffffffffff1673ffffffffffffffffffffffffffffffffffffffff1681526020016002820160009054906101000a900473ffffffffffffffffffffffffffffffffffffffff1673ffffffffffffffffffffffffffffffffffffffff1673ffffffffffffffffffffffffffffffffffffffff168152602001600382015481526020016004820160009054906101000a900460ff161515151581525050848681518110610ce857610ce7613517565b5b6020026020010181905250600185610d0091906134c1565b945050505b8080610d1090613546565b915050610b48565b508094505050505090565b610d34610d2e611afa565b82611bc9565b610d73576040517f08c379a0000000000000000000000000000000000000000000000000000000008152600401610d6a90613601565b60405180910390fd5b610d7e838383611c5e565b505050565b610d9e8383836040518060200160405280600081525061140f565b505050565b60606000610db16007611bbb565b905060008060005b83811015610e5a573373ffffffffffffffffffffffffffffffffffffffff16600b6000600184610de991906134c1565b815260200190815260200160002060010160009054906101000a900473ffffffffffffffffffffffffffffffffffffffff1673ffffffffffffffffffffffffffffffffffffffff161415610e4757600183610e4491906134c1565b92505b8080610e5290613546565b915050610db9565b5060008267ffffffffffffffff811115610e7757610e76612f42565b5b604051908082528060200260200182016040528015610eb057816020015b610e9d612961565b815260200190600190039081610e955790505b50905060005b84811015611086573373ffffffffffffffffffffffffffffffffffffffff16600b6000600184610ee691906134c1565b815260200190815260200160002060010160009054906101000a900473ffffffffffffffffffffffffffffffffffffffff1673ffffffffffffffffffffffffffffffffffffffff161415611073576000600182610f4391906134c1565b90506000600b60008381526020019081526020016000209050806040518060a0016040529081600082015481526020016001820160009054906101000a900473ffffffffffffffffffffffffffffffffffffffff1673ffffffffffffffffffffffffffffffffffffffff1673ffffffffffffffffffffffffffffffffffffffff1681526020016002820160009054906101000a900473ffffffffffffffffffffffffffffffffffffffff1673ffffffffffffffffffffffffffffffffffffffff1673ffffffffffffffffffffffffffffffffffffffff168152602001600382015481526020016004820160009054906101000a900460ff16151515158152505084868151811061105657611055613517565b5b602002602001018190525060018561106e91906134c1565b945050505b808061107e90613546565b915050610eb6565b508094505050505090565b6000806002600084815260200190815260200160002060009054906101000a900473ffffffffffffffffffffffffffffffffffffffff169050600073ffffffffffffffffffffffffffffffffffffffff168173ffffffffffffffffffffffffffffffffffffffff16141561113a576040517f08c379a00000000000000000000000000000000000000000000000000000000081526004016111319061366d565b60405180910390fd5b80915050919050565b60008073ffffffffffffffffffffffffffffffffffffffff168273ffffffffffffffffffffffffffffffffffffffff1614156111b4576040517f08c379a00000000000000000000000000000000000000000000000000000000081526004016111ab906136ff565b60405180910390fd5b600360008373ffffffffffffffffffffffffffffffffffffffff1673ffffffffffffffffffffffffffffffffffffffff168152602001908152602001600020549050919050565b60006112076007611ec5565b60006112136007611bbb565b905061121f3382611edb565b61122981856120b5565b6112338184612129565b8091505092915050565b60606001805461124c90613308565b80601f016020809104026020016040519081016040528092919081815260200182805461127890613308565b80156112c55780601f1061129a576101008083540402835291602001916112c5565b820191906000526020600020905b8154815290600101906020018083116112a857829003601f168201915b5050505050905090565b6112e16112da611afa565b838361232c565b5050565b600a60009054906101000a900473ffffffffffffffffffffffffffffffffffffffff1673ffffffffffffffffffffffffffffffffffffffff163373ffffffffffffffffffffffffffffffffffffffff1614611375576040517f08c379a000000000000000000000000000000000000000000000000000000000815260040161136c90613791565b60405180910390fd5b3373ffffffffffffffffffffffffffffffffffffffff16600a60009054906101000a900473ffffffffffffffffffffffffffffffffffffffff1673ffffffffffffffffffffffffffffffffffffffff1614611405576040517f08c379a00000000000000000000000000000000000000000000000000000000081526004016113fc90613823565b60405180910390fd5b8060098190555050565b61142061141a611afa565b83611bc9565b61145f576040517f08c379a000000000000000000000000000000000000000000000000000000000815260040161145690613601565b60405180910390fd5b61146b84848484612499565b50505050565b6000600b60008381526020019081526020016000206003015490508034146114ce576040517f08c379a00000000000000000000000000000000000000000000000000000000081526004016114c5906138b5565b60405180910390fd5b33600b600084815260200190815260200160002060020160006101000a81548173ffffffffffffffffffffffffffffffffffffffff021916908373ffffffffffffffffffffffffffffffffffffffff1602179055506001600b600084815260200190815260200160002060040160006101000a81548160ff02191690831515021790555061155c6008611ec5565b611567303384611c5e565b600a60009054906101000a900473ffffffffffffffffffffffffffffffffffffffff1673ffffffffffffffffffffffffffffffffffffffff166108fc6009549081150290604051600060405180830381858888f193505050501580156115d1573d6000803e3d6000fd5b50600b600083815260200190815260200160002060010160009054906101000a900473ffffffffffffffffffffffffffffffffffffffff1673ffffffffffffffffffffffffffffffffffffffff166108fc349081150290604051600060405180830381858888f1935050505015801561164e573d6000803e3d6000fd5b506000600b600084815260200190815260200160002060010160006101000a81548173ffffffffffffffffffffffffffffffffffffffff021916908373ffffffffffffffffffffffffffffffffffffffff1602179055505050565b60606116b482611aaf565b60006006600084815260200190815260200160002080546116d490613308565b80601f016020809104026020016040519081016040528092919081815260200182805461170090613308565b801561174d5780601f106117225761010080835404028352916020019161174d565b820191906000526020600020905b81548152906001019060200180831161173057829003601f168201915b50505050509050600061175e6124f5565b90506000815114156117745781925050506117b7565b6000825111156117a9578082604051602001611791929190613911565b604051602081830303815290604052925050506117b7565b6117b28461250c565b925050505b919050565b3373ffffffffffffffffffffffffffffffffffffffff16600b600084815260200190815260200160002060020160009054906101000a900473ffffffffffffffffffffffffffffffffffffffff1673ffffffffffffffffffffffffffffffffffffffff1614611860576040517f08c379a0000000000000000000000000000000000000000000000000000000008152600401611857906139a7565b60405180910390fd5b60095434146118a4576040517f08c379a000000000000000000000000000000000000000000000000000000000815260040161189b90613a39565b60405180910390fd5b6000600b600084815260200190815260200160002060040160006101000a81548160ff02191690831515021790555080600b60008481526020019081526020016000206003018190555033600b600084815260200190815260200160002060010160006101000a81548173ffffffffffffffffffffffffffffffffffffffff021916908373ffffffffffffffffffffffffffffffffffffffff16021790555030600b600084815260200190815260200160002060020160006101000a81548173ffffffffffffffffffffffffffffffffffffffff021916908373ffffffffffffffffffffffffffffffffffffffff1602179055506119a26008612574565b6119ad333084611c5e565b5050565b6000600560008473ffffffffffffffffffffffffffffffffffffffff1673ffffffffffffffffffffffffffffffffffffffff16815260200190815260200160002060008373ffffffffffffffffffffffffffffffffffffffff1673ffffffffffffffffffffffffffffffffffffffff16815260200190815260200160002060009054906101000a900460ff16905092915050565b60007f01ffc9a7000000000000000000000000000000000000000000000000000000007bffffffffffffffffffffffffffffffffffffffffffffffffffffffff1916827bffffffffffffffffffffffffffffffffffffffffffffffffffffffff1916149050919050565b611ab8816125d0565b611af7576040517f08c379a0000000000000000000000000000000000000000000000000000000008152600401611aee9061366d565b60405180910390fd5b50565b600033905090565b816004600083815260200190815260200160002060006101000a81548173ffffffffffffffffffffffffffffffffffffffff021916908373ffffffffffffffffffffffffffffffffffffffff160217905550808273ffffffffffffffffffffffffffffffffffffffff16611b7583611091565b73ffffffffffffffffffffffffffffffffffffffff167f8c5be1e5ebec7d5bd14f71427d1e84f3dd0314c0f7b2291e5b200ac8c7c3b92560405160405180910390a45050565b600081600001549050919050565b600080611bd583611091565b90508073ffffffffffffffffffffffffffffffffffffffff168473ffffffffffffffffffffffffffffffffffffffff161480611c175750611c1681856119b1565b5b80611c5557508373ffffffffffffffffffffffffffffffffffffffff16611c3d84610664565b73ffffffffffffffffffffffffffffffffffffffff16145b91505092915050565b8273ffffffffffffffffffffffffffffffffffffffff16611c7e82611091565b73ffffffffffffffffffffffffffffffffffffffff1614611cd4576040517f08c379a0000000000000000000000000000000000000000000000000000000008152600401611ccb90613acb565b60405180910390fd5b600073ffffffffffffffffffffffffffffffffffffffff168273ffffffffffffffffffffffffffffffffffffffff161415611d44576040517f08c379a0000000000000000000000000000000000000000000000000000000008152600401611d3b90613b5d565b60405180910390fd5b611d4f83838361263c565b611d5a600082611b02565b6001600360008573ffffffffffffffffffffffffffffffffffffffff1673ffffffffffffffffffffffffffffffffffffffff1681526020019081526020016000206000828254611daa919061348d565b925050819055506001600360008473ffffffffffffffffffffffffffffffffffffffff1673ffffffffffffffffffffffffffffffffffffffff1681526020019081526020016000206000828254611e0191906134c1565b92505081905550816002600083815260200190815260200160002060006101000a81548173ffffffffffffffffffffffffffffffffffffffff021916908373ffffffffffffffffffffffffffffffffffffffff160217905550808273ffffffffffffffffffffffffffffffffffffffff168473ffffffffffffffffffffffffffffffffffffffff167fddf252ad1be2c89b69c2b068fc378daa952ba7f163c4a11628f55a4df523b3ef60405160405180910390a4611ec0838383612641565b505050565b6001816000016000828254019250508190555050565b600073ffffffffffffffffffffffffffffffffffffffff168273ffffffffffffffffffffffffffffffffffffffff161415611f4b576040517f08c379a0000000000000000000000000000000000000000000000000000000008152600401611f4290613bc9565b60405180910390fd5b611f54816125d0565b15611f94576040517f08c379a0000000000000000000000000000000000000000000000000000000008152600401611f8b90613c35565b60405180910390fd5b611fa06000838361263c565b6001600360008473ffffffffffffffffffffffffffffffffffffffff1673ffffffffffffffffffffffffffffffffffffffff1681526020019081526020016000206000828254611ff091906134c1565b92505081905550816002600083815260200190815260200160002060006101000a81548173ffffffffffffffffffffffffffffffffffffffff021916908373ffffffffffffffffffffffffffffffffffffffff160217905550808273ffffffffffffffffffffffffffffffffffffffff16600073ffffffffffffffffffffffffffffffffffffffff167fddf252ad1be2c89b69c2b068fc378daa952ba7f163c4a11628f55a4df523b3ef60405160405180910390a46120b160008383612641565b5050565b6120be826125d0565b6120fd576040517f08c379a00000000000000000000000000000000000000000000000000000000081526004016120f490613cc7565b60405180910390fd5b806006600084815260200190815260200160002090805190602001906121249291906129be565b505050565b6000811161216c576040517f08c379a000000000000000000000000000000000000000000000000000000000815260040161216390613d33565b60405180910390fd5b60095434146121b0576040517f08c379a00000000000000000000000000000000000000000000000000000000081526004016121a790613a39565b60405180910390fd5b6040518060a001604052808381526020013373ffffffffffffffffffffffffffffffffffffffff1681526020013073ffffffffffffffffffffffffffffffffffffffff16815260200182815260200160001515815250600b60008481526020019081526020016000206000820151816000015560208201518160010160006101000a81548173ffffffffffffffffffffffffffffffffffffffff021916908373ffffffffffffffffffffffffffffffffffffffff16021790555060408201518160020160006101000a81548173ffffffffffffffffffffffffffffffffffffffff021916908373ffffffffffffffffffffffffffffffffffffffff1602179055506060820151816003015560808201518160040160006101000a81548160ff0219169083151502179055509050506122e9333084611c5e565b817fb640004f1d14576d0c209e240cad0410e0d8c0c33a09375861fbadae2588a98d33308460006040516123209493929190613d53565b60405180910390a25050565b8173ffffffffffffffffffffffffffffffffffffffff168373ffffffffffffffffffffffffffffffffffffffff16141561239b576040517f08c379a000000000000000000000000000000000000000000000000000000000815260040161239290613de4565b60405180910390fd5b80600560008573ffffffffffffffffffffffffffffffffffffffff1673ffffffffffffffffffffffffffffffffffffffff16815260200190815260200160002060008473ffffffffffffffffffffffffffffffffffffffff1673ffffffffffffffffffffffffffffffffffffffff16815260200190815260200160002060006101000a81548160ff0219169083151502179055508173ffffffffffffffffffffffffffffffffffffffff168373ffffffffffffffffffffffffffffffffffffffff167f17307eab39ab6107e8899845ad3d59bd9653f200f220920489ca2b5937696c318360405161248c9190612b15565b60405180910390a3505050565b6124a4848484611c5e565b6124b084848484612646565b6124ef576040517f08c379a00000000000000000000000000000000000000000000000000000000081526004016124e690613e76565b60405180910390fd5b50505050565b606060405180602001604052806000815250905090565b606061251782611aaf565b60006125216124f5565b90506000815111612541576040518060200160405280600081525061256c565b8061254b846127dd565b60405160200161255c929190613911565b6040516020818303038152906040525b915050919050565b600081600001549050600081116125c0576040517f08c379a00000000000000000000000000000000000000000000000000000000081526004016125b790613ee2565b60405180910390fd5b6001810382600001819055505050565b60008073ffffffffffffffffffffffffffffffffffffffff166002600084815260200190815260200160002060009054906101000a900473ffffffffffffffffffffffffffffffffffffffff1673ffffffffffffffffffffffffffffffffffffffff1614159050919050565b505050565b505050565b60006126678473ffffffffffffffffffffffffffffffffffffffff1661293e565b156127d0578373ffffffffffffffffffffffffffffffffffffffff1663150b7a02612690611afa565b8786866040518563ffffffff1660e01b81526004016126b29493929190613f57565b602060405180830381600087803b1580156126cc57600080fd5b505af19250505080156126fd57506040513d601f19601f820116820180604052508101906126fa9190613fb8565b60015b612780573d806000811461272d576040519150601f19603f3d011682016040523d82523d6000602084013e612732565b606091505b50600081511415612778576040517f08c379a000000000000000000000000000000000000000000000000000000000815260040161276f90613e76565b60405180910390fd5b805181602001fd5b63150b7a0260e01b7bffffffffffffffffffffffffffffffffffffffffffffffffffffffff1916817bffffffffffffffffffffffffffffffffffffffffffffffffffffffff1916149150506127d5565b600190505b949350505050565b60606000821415612825576040518060400160405280600181526020017f30000000000000000000000000000000000000000000000000000000000000008152509050612939565b600082905060005b6000821461285757808061284090613546565b915050600a826128509190614014565b915061282d565b60008167ffffffffffffffff81111561287357612872612f42565b5b6040519080825280601f01601f1916602001820160405280156128a55781602001600182028036833780820191505090505b5090505b60008514612932576001826128be919061348d565b9150600a856128cd9190614045565b60306128d991906134c1565b60f81b8183815181106128ef576128ee613517565b5b60200101907effffffffffffffffffffffffffffffffffffffffffffffffffffffffffffff1916908160001a905350600a8561292b9190614014565b94506128a9565b8093505050505b919050565b6000808273ffffffffffffffffffffffffffffffffffffffff163b119050919050565b6040518060a0016040528060008152602001600073ffffffffffffffffffffffffffffffffffffffff168152602001600073ffffffffffffffffffffffffffffffffffffffff168152602001600081526020016000151581525090565b8280546129ca90613308565b90600052602060002090601f0160209004810192826129ec5760008555612a33565b82601f10612a0557805160ff1916838001178555612a33565b82800160010185558215612a33579182015b82811115612a32578251825591602001919060010190612a17565b5b509050612a409190612a44565b5090565b5b80821115612a5d576000816000905550600101612a45565b5090565b6000604051905090565b600080fd5b600080fd5b60007fffffffff0000000000000000000000000000000000000000000000000000000082169050919050565b612aaa81612a75565b8114612ab557600080fd5b50565b600081359050612ac781612aa1565b92915050565b600060208284031215612ae357612ae2612a6b565b5b6000612af184828501612ab8565b91505092915050565b60008115159050919050565b612b0f81612afa565b82525050565b6000602082019050612b2a6000830184612b06565b92915050565b600081519050919050565b600082825260208201905092915050565b60005b83811015612b6a578082015181840152602081019050612b4f565b83811115612b79576000848401525b50505050565b6000601f19601f8301169050919050565b6000612b9b82612b30565b612ba58185612b3b565b9350612bb5818560208601612b4c565b612bbe81612b7f565b840191505092915050565b60006020820190508181036000830152612be38184612b90565b905092915050565b6000819050919050565b612bfe81612beb565b8114612c0957600080fd5b50565b600081359050612c1b81612bf5565b92915050565b600060208284031215612c3757612c36612a6b565b5b6000612c4584828501612c0c565b91505092915050565b600073ffffffffffffffffffffffffffffffffffffffff82169050919050565b6000612c7982612c4e565b9050919050565b612c8981612c6e565b82525050565b6000602082019050612ca46000830184612c80565b92915050565b612cb381612c6e565b8114612cbe57600080fd5b50565b600081359050612cd081612caa565b92915050565b60008060408385031215612ced57612cec612a6b565b5b6000612cfb85828601612cc1565b9250506020612d0c85828601612c0c565b9150509250929050565b600081519050919050565b600082825260208201905092915050565b6000819050602082019050919050565b612d4b81612beb565b82525050565b6000612d5c82612c4e565b9050919050565b612d6c81612d51565b82525050565b612d7b81612afa565b82525050565b60a082016000820151612d976000850182612d42565b506020820151612daa6020850182612d63565b506040820151612dbd6040850182612d63565b506060820151612dd06060850182612d42565b506080820151612de36080850182612d72565b50505050565b6000612df58383612d81565b60a08301905092915050565b6000602082019050919050565b6000612e1982612d16565b612e238185612d21565b9350612e2e83612d32565b8060005b83811015612e5f578151612e468882612de9565b9750612e5183612e01565b925050600181019050612e32565b5085935050505092915050565b60006020820190508181036000830152612e868184612e0e565b905092915050565b612e9781612beb565b82525050565b6000602082019050612eb26000830184612e8e565b92915050565b600080600060608486031215612ed157612ed0612a6b565b5b6000612edf86828701612cc1565b9350506020612ef086828701612cc1565b9250506040612f0186828701612c0c565b9150509250925092565b600060208284031215612f2157612f20612a6b565b5b6000612f2f84828501612cc1565b91505092915050565b600080fd5b600080fd5b7f4e487b7100000000000000000000000000000000000000000000000000000000600052604160045260246000fd5b612f7a82612b7f565b810181811067ffffffffffffffff82111715612f9957612f98612f42565b5b80604052505050565b6000612fac612a61565b9050612fb88282612f71565b919050565b600067ffffffffffffffff821115612fd857612fd7612f42565b5b612fe182612b7f565b9050602081019050919050565b82818337600083830152505050565b600061301061300b84612fbd565b612fa2565b90508281526020810184848401111561302c5761302b612f3d565b5b613037848285612fee565b509392505050565b600082601f83011261305457613053612f38565b5b8135613064848260208601612ffd565b91505092915050565b6000806040838503121561308457613083612a6b565b5b600083013567ffffffffffffffff8111156130a2576130a1612a70565b5b6130ae8582860161303f565b92505060206130bf85828601612c0c565b9150509250929050565b6130d281612afa565b81146130dd57600080fd5b50565b6000813590506130ef816130c9565b92915050565b6000806040838503121561310c5761310b612a6b565b5b600061311a85828601612cc1565b925050602061312b858286016130e0565b9150509250929050565b600067ffffffffffffffff8211156131505761314f612f42565b5b61315982612b7f565b9050602081019050919050565b600061317961317484613135565b612fa2565b90508281526020810184848401111561319557613194612f3d565b5b6131a0848285612fee565b509392505050565b600082601f8301126131bd576131bc612f38565b5b81356131cd848260208601613166565b91505092915050565b600080600080608085870312156131f0576131ef612a6b565b5b60006131fe87828801612cc1565b945050602061320f87828801612cc1565b935050604061322087828801612c0c565b925050606085013567ffffffffffffffff81111561324157613240612a70565b5b61324d878288016131a8565b91505092959194509250565b600080604083850312156132705761326f612a6b565b5b600061327e85828601612c0c565b925050602061328f85828601612c0c565b9150509250929050565b600080604083850312156132b0576132af612a6b565b5b60006132be85828601612cc1565b92505060206132cf85828601612cc1565b9150509250929050565b7f4e487b7100000000000000000000000000000000000000000000000000000000600052602260045260246000fd5b6000600282049050600182168061332057607f821691505b60208210811415613334576133336132d9565b5b50919050565b7f4552433732313a20617070726f76616c20746f2063757272656e74206f776e6560008201527f7200000000000000000000000000000000000000000000000000000000000000602082015250565b6000613396602183612b3b565b91506133a18261333a565b604082019050919050565b600060208201905081810360008301526133c581613389565b9050919050565b7f4552433732313a20617070726f76652063616c6c6572206973206e6f7420746f60008201527f6b656e206f776e6572206e6f7220617070726f76656420666f7220616c6c0000602082015250565b6000613428603e83612b3b565b9150613433826133cc565b604082019050919050565b600060208201905081810360008301526134578161341b565b9050919050565b7f4e487b7100000000000000000000000000000000000000000000000000000000600052601160045260246000fd5b600061349882612beb565b91506134a383612beb565b9250828210156134b6576134b561345e565b5b828203905092915050565b60006134cc82612beb565b91506134d783612beb565b9250827fffffffffffffffffffffffffffffffffffffffffffffffffffffffffffffffff0382111561350c5761350b61345e565b5b828201905092915050565b7f4e487b7100000000000000000000000000000000000000000000000000000000600052603260045260246000fd5b600061355182612beb565b91507fffffffffffffffffffffffffffffffffffffffffffffffffffffffffffffffff8214156135845761358361345e565b5b600182019050919050565b7f4552433732313a2063616c6c6572206973206e6f7420746f6b656e206f776e6560008201527f72206e6f7220617070726f766564000000000000000000000000000000000000602082015250565b60006135eb602e83612b3b565b91506135f68261358f565b604082019050919050565b6000602082019050818103600083015261361a816135de565b9050919050565b7f4552433732313a20696e76616c696420746f6b656e2049440000000000000000600082015250565b6000613657601883612b3b565b915061366282613621565b602082019050919050565b600060208201905081810360008301526136868161364a565b9050919050565b7f4552433732313a2061646472657373207a65726f206973206e6f74206120766160008201527f6c6964206f776e65720000000000000000000000000000000000000000000000602082015250565b60006136e9602983612b3b565b91506136f48261368d565b604082019050919050565b60006020820190508181036000830152613718816136dc565b9050919050565b7f6f6e6c79206f776e6572206f6620746865206d61726b6574706c61636520636160008201527f6e206368616e676520746865206c697374696e67207072696365000000000000602082015250565b600061377b603a83612b3b565b91506137868261371f565b604082019050919050565b600060208201905081810360008301526137aa8161376e565b9050919050565b7f4f6e6c79206d61726b6574706c616365206f776e65722063616e20757064617460008201527f65206c697374696e672070726963652e00000000000000000000000000000000602082015250565b600061380d603083612b3b565b9150613818826137b1565b604082019050919050565b6000602082019050818103600083015261383c81613800565b9050919050565b7f506c65617365207375626d6974207468652061736b696e67207072696365206960008201527f6e206f7264657220746f20636f6d706c65746520746865207075726368617365602082015250565b600061389f604083612b3b565b91506138aa82613843565b604082019050919050565b600060208201905081810360008301526138ce81613892565b9050919050565b600081905092915050565b60006138eb82612b30565b6138f581856138d5565b9350613905818560208601612b4c565b80840191505092915050565b600061391d82856138e0565b915061392982846138e0565b91508190509392505050565b7f4f6e6c79206974656d206f776e65722063616e20706572666f726d207468697360008201527f206f7065726174696f6e00000000000000000000000000000000000000000000602082015250565b6000613991602a83612b3b565b915061399c82613935565b604082019050919050565b600060208201905081810360008301526139c081613984565b9050919050565b7f5072696365206d75737420626520657175616c20746f206c697374696e67207060008201527f7269636500000000000000000000000000000000000000000000000000000000602082015250565b6000613a23602483612b3b565b9150613a2e826139c7565b604082019050919050565b60006020820190508181036000830152613a5281613a16565b9050919050565b7f4552433732313a207472616e736665722066726f6d20696e636f72726563742060008201527f6f776e6572000000000000000000000000000000000000000000000000000000602082015250565b6000613ab5602583612b3b565b9150613ac082613a59565b604082019050919050565b60006020820190508181036000830152613ae481613aa8565b9050919050565b7f4552433732313a207472616e7366657220746f20746865207a65726f2061646460008201527f7265737300000000000000000000000000000000000000000000000000000000602082015250565b6000613b47602483612b3b565b9150613b5282613aeb565b604082019050919050565b60006020820190508181036000830152613b7681613b3a565b9050919050565b7f4552433732313a206d696e7420746f20746865207a65726f2061646472657373600082015250565b6000613bb3602083612b3b565b9150613bbe82613b7d565b602082019050919050565b60006020820190508181036000830152613be281613ba6565b9050919050565b7f4552433732313a20746f6b656e20616c7265616479206d696e74656400000000600082015250565b6000613c1f601c83612b3b565b9150613c2a82613be9565b602082019050919050565b60006020820190508181036000830152613c4e81613c12565b9050919050565b7f45524337323155524953746f726167653a2055524920736574206f66206e6f6e60008201527f6578697374656e7420746f6b656e000000000000000000000000000000000000602082015250565b6000613cb1602e83612b3b565b9150613cbc82613c55565b604082019050919050565b60006020820190508181036000830152613ce081613ca4565b9050919050565b7f5072696365206d757374206265206174206c6561737420312077656900000000600082015250565b6000613d1d601c83612b3b565b9150613d2882613ce7565b602082019050919050565b60006020820190508181036000830152613d4c81613d10565b9050919050565b6000608082019050613d686000830187612c80565b613d756020830186612c80565b613d826040830185612e8e565b613d8f6060830184612b06565b95945050505050565b7f4552433732313a20617070726f766520746f2063616c6c657200000000000000600082015250565b6000613dce601983612b3b565b9150613dd982613d98565b602082019050919050565b60006020820190508181036000830152613dfd81613dc1565b9050919050565b7f4552433732313a207472616e7366657220746f206e6f6e20455243373231526560008201527f63656976657220696d706c656d656e7465720000000000000000000000000000602082015250565b6000613e60603283612b3b565b9150613e6b82613e04565b604082019050919050565b60006020820190508181036000830152613e8f81613e53565b9050919050565b7f436f756e7465723a2064656372656d656e74206f766572666c6f770000000000600082015250565b6000613ecc601b83612b3b565b9150613ed782613e96565b602082019050919050565b60006020820190508181036000830152613efb81613ebf565b9050919050565b600081519050919050565b600082825260208201905092915050565b6000613f2982613f02565b613f338185613f0d565b9350613f43818560208601612b4c565b613f4c81612b7f565b840191505092915050565b6000608082019050613f6c6000830187612c80565b613f796020830186612c80565b613f866040830185612e8e565b8181036060830152613f988184613f1e565b905095945050505050565b600081519050613fb281612aa1565b92915050565b600060208284031215613fce57613fcd612a6b565b5b6000613fdc84828501613fa3565b91505092915050565b7f4e487b7100000000000000000000000000000000000000000000000000000000600052601260045260246000fd5b600061401f82612beb565b915061402a83612beb565b92508261403a57614039613fe5565b5b828204905092915050565b600061405082612beb565b915061405b83612beb565b92508261406b5761406a613fe5565b5b82820690509291505056fea264697066735822122076f4bc30c6220f4d4f05bd863843932fc5089f36ca4b930b70de5b1cc2c269a264736f6c63430008090033",
  "linkReferences": {},
  "deployedLinkReferences": {}
}